:020000020000FC
:040000000C947200EA
:1000E4000FEF0DBF01E20EBF00EF00930A010FEF07
:1000F40007B908B93FEE222730930B010FEF0A9599
:10010400F1F7009109010F700F3061F031E0112710
:10011400402F432319F40DD00C947C001395330F16
:100124000C948A00233031F30894331F23950C94E4
:100134007E00233049F0133059F0012F000F010FD6
:10014400020F03950C94B5000AE0010F0C94B5005E
:10015400203029F0213031F00FE00C94B5000EE08E
:0A0164000C94B500002708B90895B7
:00000001FF
