:020000020000FC
:0C0000000C9430000C949F000C94AA009B
:10005C000C9417030FEF0DBF01E20EBF00EF0093DE
:10006C000A010FEF07B9002708B90FEF00BB01B960
:10007C00002701BB02B908E38AD3A3D3BED308E39C
:10008C0086D39FD3B1D308E382D39BD308E37FD32A
:10009C0098D308E07CD395D301E079D392D306E0D2
:1000AC0076D38FD30EE073D38CD300E10DB900E07F
:1000BC0000939A00002700939B0002E000939100AC
:1000CC0001E200939000789400270AB90BB90AE07A
:1000DC00009369000DB303600DBB7894BB24CC2452
:1000EC00992466245527DD24E0E0F2E0A4E6B2E092
:1000FC0001D02FC101E04BD364D303E553D361D3BB
:10010C0004E550D35ED301E44DD35BD304E54AD36D
:10011C0058D300E247D355D30EE444D352D305E56C
:10012C0041D34FD30DE43ED34CD30AE33BD349D355
:10013C0008950F930FB70F9341E0242E0FEF08B9DA
:10014C000F910FBF0F9118950F930FB70F9341E0BD
:10015C00242E0F910FBF0F911895C39401E017D364
:10016C0030D3EC2C40E3E42A03E51CD32AD34AE039
:10017C00C41641F00E2D16D324D300E213D321D391
:10018C007724089501E30ED31CD300E30BD319D3CA
:10019C000C94C300C39401E0FAD213D3EC2C40E3CB
:1001AC00E42A03E5FFD20DD34AE0C41631F10E2D3B
:1001BC00F9D207D300E2F6D204D304E5F3D201D38B
:1001CC000FE4F0D2FED200E2EDD2FBD203E5EAD28C
:1001DC00F8D249E0C416C9F0CB1441F0E3940E2DCB
:1001EC00E1D2EFD200E2DED2ECD2089501E3DAD212
:1001FC00E8D200E2D7D2E5D2089501E3D3D2E1D21E
:10020C0000E3D0D2DED20C94E00001E3CBD2D9D201
:10021C0000E3C8D2D6D20C94F80001E0B8D2D1D207
:10022C0003E5C0D2CED204E5BDD2CBD20FE4BAD214
:10023C00C8D200E5B7D2C5D200E2B4D2C2D204E52E
:10024C00B1D2BFD209E4AED2BCD20DE4ABD2B9D29A
:10025C0005E4A8D2B6D20AE3A5D2B3D2089501E040
:10026C0096D2AFD2E92C00E3E02A0E2D9BD2A9D274
:10027C000FE498D2A6D20BE495D2A3D200E292D28C
:10028C00A0D207E58FD29DD201E48CD29AD209E498
:10029C0089D297D204E586D294D208950C94900119
:1002AC000C949C0101E073D28CD2CB14C9F3E19075
:1002BC000E2D78D286D2E1900E2D74D282D2E1909E
:1002CC000E2D70D27ED2E1900E2D6CD27AD2E190AE
:1002DC000E2D68D276D2E1900E2D64D272D2E190BE
:1002EC000E2D60D26ED2E1900E2D5CD26AD2E190CE
:1002FC000E2D58D266D2E1900E2D54D262D2E290DD
:10030C00E290E290E290E290E290E290E290E29051
:10031C00E2900895E190E190E190E190E190E1901C
:10032C00E190E190E190E1900C945D01E0E0F2E06D
:10033C000C945D010C9480000C94B3000C94D000D0
:10034C000C94D0000C94D00058D201E020D239D2B9
:10035C0003C05ED25DD25CD23FEE222730930B01FC
:10036C000FEF0A95F1F7009109010F700F3061F052
:10037C0031E01127402F432319F40DD00C94AF0119
:10038C001395330F0C94C001233019F30894331FC9
:10039C0023950C94B401233039F11330F9F0012F6B
:1003AC00000F010F020F039540E0D416C1F142E09B
:1003BC00D416A9F143E0D41691F144E0D416A9F176
:1003CC00703099F1013089F1073069F1093049F148
:1003DC00743059F1083029F10C9419022030A9F12C
:1003EC00213089F10C948B0240E0D416F1F042E0FC
:1003FC00D416D9F043E0D416C1F001E0010F702FF0
:10040C0008954AE0741688F4E02E00E4E02AE192A4
:10041C00739477270C947F0277240C9448020C94E5
:10042C001D020C9450020C9449020C944802E02ECC
:10043C0040E0D416D1F042E0D41649F043E0D41693
:10044C0069F00C941B020C946F020C945A0248E055
:10045C00741658F7802E73940C94420247E074166D
:10046C0020F7902E73940C94420248E07416E8F630
:10047C00B02E73940C94420200E3E02A7727A394E5
:10048C000C947F0208950250402F440F040F070F65
:10049C00A394B7CF0250402F440F040F070F0395BE
:1004AC00A394AFCF0C94340240E0D41659F342E03D
:1004BC00D41641F343E0D41629F300E2E02EE19286
:1004CC0073947727A3940C947F020C9448020C9499
:1004DC002D0200E0E02E41E0D416A1F240E0D4164B
:1004EC0021F242E0D41699F343E0D416D9F20C94DD
:1004FC001B0200910901F02E0E2D54D162D17DD139
:10050C00009109010F15D9F3089540E0D41689F034
:10051C0041E0D41621F142E0D416A9F143E0D416FF
:10052C00D1F044E0D41619F045E0D416B1F0AA2469
:10053C00089540E0A41659F040E0B41641F041E0B3
:10054C00B41629F0D394772408DE0C949D024AE06B
:10055C00B42E0C94A8020C94DF020C94FA0200E264
:10056C004AE0741621F0019373940C94B50277242D
:10057C0001F0CB142CF0D394CC240CDE0C949D0203
:10058C00ECDD0C949D0240E0A41679F040E084165A
:10059C0061F08D927724CB142CF0D394CC243DDED7
:1005AC000C949D02F7DD0C949D024AE0842E0C9471
:1005BC00CF0240E0A41681F040E0941669F041E0CF
:1005CC00941651F046E0941658F47724D394AA2448
:1005DC0046DE18D00C949D0242E0942E0C94EB0253
:1005EC0045E0942E0C94EB0213D112D111D110D101
:1005FC0041E0541711F0542F089555272224552407
:10060C0066240895AA2400E004BD02E005BD01E0C3
:10061C0000936E007894089503E008B9EED00C9422
:10062C0034036FB76F93DF93CF939F938F93809126
:10063C006E0290916F02019641E05417D1F141E0A6
:10064C00341661F0813060E0960731F38D326AE048
:10065C00960711F3883564E19607F1F2002708B983
:10066C0084386EE1960791F441E0541749F044E068
:10067C00D41611F141E05416A1F045E0D416C9F19D
:10068C00CEE6D2E000270993088304C080936E0263
:10069C0090936F028F919F91CF91DF916F916FBF6C
:1006AC0018956ED0A394A9145CF322245524AA2483
:1006BC00662466D00C942503A39444E0A416B4F0ED
:1006CC00D394E0E0F2E0A4E6B2E0E190E190E190B6
:1006DC00E190E190E190E190E190E190E190CC2407
:1006EC00AA248D90C39466240C944603B8DD0C9414
:1006FC00460341E0541721F241E0641609F038D06A
:10070C00A394A81494F1CB14ECF0CB1401F0E0E01A
:10071C00F2E0A4E6B2E0E190E190E190E190E190AA
:10072C00E190E190E190E190E190CC24C394AA2473
:10073C008D9041E0241611F00C94460341E0542EA8
:10074C000C944603C394AA248D90ACDDE190E19007
:10075C00E190E190E190E190E190E190E190E19005
:10076C0041E0241659F30C9446039CDD0C9446038B
:10077C0041E0642E342E4CE3442E40929A000895AE
:10078C0040E0342E40E0442E40929A00089501BB84
:10079C000000169A000000000000169800000000EF
:1007AC000000089501BB179A000000000000169A83
:1007BC0000000000000016980000000000001798D0
:1007CC0008950F93002700BB01BB159A0000169AE1
:1007DC000000000000000FB1169807FDF7CF159828
:1007EC000FEF00BB0F9108958F939F939FE08CE9BF
:1007FC000197F1F79F918F910895F6DFF5DFF4DF04
:10080C00F3DFF2DF0895F9DFF8DFF7DFF6DF0895A5
:0C081C00FADFF9DFF8DFF7DFF6DF089500
:00000001FF
