:020000020000FC
:100000000C9433000C9487000C948F000C945801CE
:10005C000C9497000C94320018950FEF0DBF01E231
:10006C000EBF0FEF00BB01B9002701BB02B9C1E005
:10007C00D2E0002709930883C3E0D2E0002709935C
:10008C000883112733272227552708E313D122D1C0
:10009C003BD108E30FD11ED12ED108E30BD11AD1DD
:1000AC0008E308D117D108E005D114D101E002D141
:1000BC0011D106E0FFD00ED10EE0FCD00BD100C068
:1000CC006627772700E10DB9002700939A000027D7
:1000DC0000939B000AE2009369000DB307600DBB0F
:1000EC0001E20093900002E000939100002704BD10
:1000FC0002E005BD01E000936E006093000278946D
:10010C00FFCF403009F0189541E0743649F07C5E21
:10011C001895403009F0189541E07030C9F37451CE
:10012C0018950FB70F93DF93CF939F938F93809175
:10013C000102909102020196883908E0900729F09B
:10014C00809301029093020206C0C1E0D2E0002726
:10015C00099308834427809103029091040201962D
:10016C00983002EA8007F1F4703021F4662760932E
:10017C009A0011C0171779F060919A00171730F494
:10018C006F3F49F06D5F60939A0005C0603019F0C5
:10019C00635060939A00C3E0D2E000270993088370
:1001AC000CD004C080930302909304028F919F9112
:1001BC00CF91DF910F910FBF189501E07BD08AD0C2
:1001CC0000E878D087D0172F04E57BD083D001E6E8
:1001DC0078D080D002E775D07DD007E672D07AD087
:1001EC0005E66FD077D004E76CD074D00AE369D001
:1001FC0071D000E266D06ED01ED008EA5BD06AD017
:10020C0003E0509F102D552703E55BD063D000E72A
:10021C0058D060D005E655D05DD005E652D05AD006
:10022C0004E64FD057D00AE34CD054D000E249D06A
:10023C0051D001D008951F93143690F41A30E0F485
:10024C0000910002222720930002013019F400E3F0
:10025C0038D040D0105D012F34D03CD01F91089580
:10026C0001E00093000234E61A953A953030E1F73C
:10027C002395143668F0E0CF0027009300023AE093
:10028C001A953A953030E1F723951A3008F0D4CF0F
:10029C00205D022F16D01ED02227CECF5395EE27ED
:1002AC000C945D010FB70F93E395E430B9F30F9104
:1002BC000FBF189501BB1FD0169A1DD016981BD0D6
:1002CC00089501BB179A17D0169A15D0169813D00B
:1002DC00179808950F93002700BB01BB159A0BD0FC
:1002EC00169A09D00FB1169807FDF9CF15980FEF94
:1002FC0000BB0F9108958F939F939FE08CE901971A
:10030C00F1F79F918F910895F6DFF5DFF4DFF3DFBE
:04031C00F2DF08956F
:00000001FF
