:020000020000FC
:0C0000000C9430000C9484000C949000D0
:10005C000C949C000FEF0DBF01E20EBF00EF00935C
:10006C000A010FEF07B900BB01B9002708B901BBA2
:10007C0002B908E341D45AD475D408E33DD456D41C
:10008C0068D408E339D452D408E336D44FD408E00A
:10009C0033D44CD401E030D449D406E02DD446D42A
:1000AC000DE02AD443D400E10DB900E000939A008E
:1000BC00002700939B0001E00093910001E2009364
:1000CC009000789400270AB90BB90AE000936900F4
:1000DC000DB303600DBB7894C9E7D2E000270993F8
:1000EC0008836624FF24BB249924AA24CC245527F6
:1000FC006627A8E7B2E06C9376D175C00F930FB763
:10010C000F9308E00523003009F051600F910FBFE9
:10011C000F9118950F930FB70F9308E0052300303C
:10012C0009F051600F910FBF0F9118950FB70F93F6
:10013C00DF93CF939F938F938091790290917A0262
:10014C00019608E005230830B1F402E005230230E3
:10015C0091F0813000E0900749F0843100E0900785
:10016C0029F0883200E0900709F005C003E008B9D7
:10017C00F9D30C94C100002708B98D3300E0900727
:10018C0041F504E005230430F1F008E005230030CC
:10019C0019F473940C94E90002E00523023069F41D
:1001AC0001E0601A60167CF40FEF902E01E005233D
:1001BC00013049F48AD37B2C5C7F01E0701A002754
:1001CC0070160CF47DD3C9E7D2E00027099308839D
:1001DC0004C08093790290937A028F919F91CF9172
:1001EC00DF910F91189576D3BDD3BCD308E00523CE
:1001FC00083021F40FEF901609F46CD23FEE222751
:10020C0030930B010FEF0A950000E9F700910901FB
:10021C000F700F3061F031E01127402F432319F498
:10022C0011D00C94F9001395330F0C941301233057
:10023C00D1F20894331F23950C9406010C9487017A
:10024C000C9495012330D1F31330A1F1012F000F41
:10025C00010F020F0395F02E00E40523003481F703
:10026C0000E0901629F10F2D013011F104E09016E9
:10027C0040F007E0F01629F009E0F01611F00C94AC
:10028C005E010AE0A01610F00C94AD01A3940F2DA2
:10029C000250402F440F040F090D48E0F41609F4E6
:1002AC00039549E0F41609F40395F02E0C94A4017F
:1002BC000C94AD012030B1F0213021F064D374D214
:1002CC0062D30895FF24772700E80523003809F14D
:1002DC0000E205230032F9F000E105230031E9F0DA
:1002EC000C94AD0100E40523003489F50AE0A01656
:1002FC0010F00C94AD0100E2702F7193A3940C9448
:10030C00AE0140E44523403411F5912E939498B8F6
:10031C0008950C94D2010C94D2010C94EB017F2D16
:10032C0000E80523003809F100E205230032A1F1B1
:10033C0000E10523003189F30C94AD010F2D00640D
:10034C00702F71930C94AE0170630C94AE010895F0
:10035C0000910901E02E072FDAD2E8D2639502D37F
:10036C00009109010E15D9F30895A8E7B2E00C919C
:10037C00402FD02E09E04D0D01500130E4F7042F31
:10038C000BF001C000E80F0D0B3010F000270F2D03
:10039C00F02EFC920C94AA01A39442E00F2DA4160B
:1003AC0080F00081402FD02E09E04D0D015001301E
:1003BC00E4F7042F0BF001C000E80F0D0B3008F030
:1003CC000F2DF02EF0820C94AA010F2D023018F490
:1003DC0002E0F02E04C0063010F005E0F02EA394DD
:1003EC00BF2C0C94AA0101E087D2A0D257705068A0
:1003FC000DE48DD29BD201E48AD298D208E587D243
:10040C0095D200E284D292D203E581D28FD204E558
:10041C007ED28CD201E47BD289D204E578D286D20A
:10042C0009E475D283D20FE472D280D20EE46FD27B
:10043C007DD203E56CD27AD260E14CD20DE267D268
:10044C0075D20EE364D272D26E5F089501E054D27D
:10045C006DD25770506403E55AD268D204E557D276
:10046C0065D201E454D262D204E551D25FD209E4E0
:10047C004ED25CD20FE44BD259D20EE448D256D2B3
:10048C0000E245D253D20C2D0A3038F001E33FD2B2
:10049C004DD200E33CD24AD204C00063002F37D2C5
:1004AC0045D200E234D242D20EE431D23FD201E442
:1004BC002ED23CD20DE42BD239D205E428D236D23E
:1004CC0060E108D20DE223D231D20EE320D22ED23B
:1004DC006E5F59D2089501E00FD228D25770506246
:1004EC0003E515D223D204E512D220D20C2D0A300A
:1004FC0038F001E30CD21AD200E309D217D205C0AE
:10050C000063002F04D212D2C39400E200D20ED2A8
:10051C0004E5FDD10BD20FE4FAD108D200E2F7D1F9
:10052C0005D203E5F4D102D204E5F1D1FFD10C2DB3
:10053C000A3038F001E3EBD1F9D100E3E8D1F6D180
:10054C0004C00063002FE3D1F1D100E2E0D1EED181
:10055C0004E5DDD1EBD109E4DAD1E8D10DE4D7D152
:10056C00E5D105E4D4D1E2D160E1B4D10DE2CFD133
:10057C00DDD10EE3CCD1DAD16E5F05D2089501E066
:10058C00BBD1D4D1577050610DE4C1D1CFD102E5AC
:10059C00BED1CCD101E4BBD1C9D109E4B8D1C6D10B
:1005AC000CE4B5D1C3D100E2B2D1C0D103E5AFD1D7
:1005BC00BDD104E5ACD1BAD10FE4A9D1B7D100E5D6
:1005CC00A6D1B4D100E2A3D1B1D104E5A0D1AED172
:1005DC0009E49DD1ABD10DE49AD1A8D105E497D112
:1005EC00A5D160E177D10DE292D1A0D10EE38FD1EC
:1005FC009DD16E5FC8D1089501E07ED197D155276A
:10060C0003E485D193D10FE482D190D10EE47FD154
:10061C008DD106E47CD18AD109E479D187D107E464
:10062C0076D184D100E273D181D103E470D17ED133
:10063C000FE46DD17BD10DE46AD178D100E567D19F
:10064C0075D10CE464D172D105E461D16FD104E5AC
:10065C005ED16CD105E45BD169D160E13BD107E59A
:10066C0056D164D101E453D161D109E450D15ED1AA
:10067C0004E54DD15BD10EE24AD158D10EE247D1FF
:10068C0055D10EE244D152D16C5FA8E7B2E00C9187
:10069C00802E02E0C02E8EE692E0382E492EA0E08D
:1006AC00B2E0E4E6F2E0019199244427A00FB41FD4
:1006BC0066247724002704BD05E005BD01E0009306
:1006CC006E00789405E0701608F4FCCF5860F8D0F2
:1006DC0001D0089501E010D129D10CE00DD126D123
:1006EC000EE415D123D105E412D120D108E50FD1A8
:1006FC001DD104E50CD11AD100E209D117D103E5C3
:10070C0006D114D104E503D111D101E400D10ED1ED
:10071C0004E5FDD00BD109E4FAD008D10FE4F7D0F1
:10072C0005D10EE4F4D002D160E1D4D0082D8C14A4
:10073C0034F401E0C02EE4E6F2E0A0E0B2E0A190D7
:10074C000E2F4F2FE82FF92F61908E2F9F2FE02F18
:10075C00F42F01E0C01611F48EE692E000E0A01632
:10076C0091F07D91FFD0072FD2D0E0D0FBD001E0EB
:10077C00A01AA01698F702E00523003009F0A0D0CB
:10078C00C394992408950AE00C1539F07C2D7063FC
:10079C00072FBDD0CBD0E6D0EECF01E3B8D0C6D07A
:1007AC0000E3B5D0C3D0E7CF00E80523003889F0CB
:1007BC0000E40523003421F100E205230032A1F10D
:1007CC0000E105230031C1F008E005230830B1F049
:1007DC000895A8E7B2E00C91023010F40AE00C93F3
:1007EC0001E0C02EAA249924E0E0F2E0C4E6D2E0B5
:1007FC002DDE08950C941A040C9454040C945B0490
:10080C00A992AA24C394A8E7B2E00C910395C01650
:10081C0011F01CDE0895AA24EEE6F2E001E0C02EF1
:10082C00002708B958DE089501E0A01618F405E079
:10083C00008305C00081003011F401E000830081C9
:10084C0001E0E00F0027F01FA8E7B2E00C910C15B7
:10085C0029F00C2D0130E9F03EDE089501E04CD07A
:10086C0065D003E554D062D004E551D05FD00C2D97
:10087C000A3038F001E34BD059D000E348D056D0C1
:10088C0004C00063002F43D051D001E0C02E3DDEE8
:10089C000895AA2401E0C02E72DE0895002745E0D9
:1008AC000A1509F4B42EA8DE089504E005230430DB
:1008BC0021F00BD05D705C60089502D05B700895E0
:1008CC0052600CE300939A0008955D7000E0009371
:1008DC009A000895603119F0603239F00895179834
:1008EC00159800EC09D022D008951798159801E0BE
:1008FC0003D01CD06627089501BB0000169A000097
:10090C00000000001698000000000000089501BBD4
:10091C00179A000000000000169A0000000000006A
:10092C001698000000000000179808950F930027F8
:10093C0000BB01BB159A0000169A000000000000D5
:10094C000FB1169807FDF7CF15980FEF00BB0F915D
:10095C0008958F939F939FE08CE90197F1F79F91F6
:10096C008F910895F6DFF5DFF4DFF3DFF2DF089502
:10097C00F9DFF8DFF7DFF6DFF5DFF4DFF3DFF2DFC7
:10098C00F1DFF0DF0895F4DFF3DF0895FCDFFBDF28
:0E099C00FADFF9DFF8DF0895F9DFF8DF0895DC
:00000001FF
