:020000020000FC
:0C0000000C9430000C9478000C948400E8
:10005C000C9406010FEF0DBF01E20EBF00EF0093F1
:10006C000A010FEF07B900BB01B9002708B901BBA2
:10007C0002B908E35DD176D191D108E359D172D19F
:10008C0084D108E355D16ED108E352D16BD108E08D
:10009C004FD168D101E04CD165D106E049D162D194
:1000AC000DE046D15FD100E10DB9002700939A0015
:1000BC0000939B0001E00093910001E200939000FB
:1000CC00789400270BB90AB90AE0009369000DB3C4
:1000DC0003607894CC2455276627A8E7B2E06C938C
:1000EC008FD018C00F930FB70F9300E000939A00B6
:1000FC00516058B90F910FBF0F9118950F930FB70F
:10010C000F930CE300939A00516058B90F910FBFF5
:10011C000F911895FBD03FEE222730930B010FEF78
:10012C000A950000E9F7009109010F700F3061F09A
:10013C0031E01127402F432319F40DD00C9490007B
:10014C001395330F0C94A000233021F30894331F24
:10015C0023950C949300233001F1133071F0012F8F
:10016C00000F010F020F0395F02E00E80523003855
:10017C00C9F000E205230032A9F0203061F02130F3
:10018C0011F0ACD00895FF247727052F00780038A4
:10019C00F9F00C94DD000C94E00040E44523403869
:1001AC0049F408957F2D052F0078003889F070638D
:1001BC000C94E100089500910901E02E072FC3D0A3
:1001CC00D1D06395EBD0009109010E15D9F30895A8
:1001DC00A8E7B2E00C91402FD02E09E04D0D015054
:1001EC000130E4F7042F0BF001C000E80F0D0B30C9
:1001FC0010F000270F2DF02EFC92F8B80C94DD00B7
:10020C0001E096D0AFD0577050680DE49CD0AAD0C6
:10021C0001E499D0A7D008E596D0A4D000E293D001
:10022C00A1D003E590D09ED004E58DD09BD001E405
:10023C008AD098D004E587D095D009E484D092D0A8
:10024C000FE481D08FD00EE47ED08CD003E57BD030
:10025C0089D060E15BD00DE276D084D00EE373D010
:10026C0081D06E5F089501E063D07CD057705064EC
:10027C0003E569D077D004E566D074D001E463D08F
:10028C0071D004E560D06ED009E45DD06BD00FE482
:10029C005AD068D00EE457D065D000E254D062D06A
:1002AC000C2D0063002F4FD05DD000E24CD05AD003
:1002BC000EE449D057D001E446D054D00DE443D0DD
:1002CC0051D005E440D04ED060E120D00DE23BD0BF
:1002DC0049D00EE338D046D06E5F089500E8052B68
:1002EC00003849F000E4052B003400E2052B003205
:1002FC0000E1052B0031A8E7B2E00C91023010F4BC
:10030C000AE00C9301E0C02EAEDF0895603119F0C5
:10031C00603239F008951798159800EC09D022D066
:10032C0008951798159801E003D01CD066270895FE
:10033C0001BB0000169A0000000000001698000097
:10034C0000000000089501BB179A00000000000097
:10035C00169A000000000000169800000000000033
:10036C00179808950F93002700BB01BB159A000046
:10037C00169A0000000000000FB1169807FDF7CF89
:10038C0015980FEF00BB0F9108958F939F939FE0EB
:10039C008CE90197F1F79F918F910895F6DFF5DFC6
:0803AC00F4DFF3DFF2DF089536
:00000001FF
