:020000020000FC
:040000000C947200EA
:1000E4000FEF0DBF01E20EBF00EF00930A010FEF07
:1000F40007B901B900BB002708B902B901BB08E37D
:100104003BD254D26FD208E337D250D262D208E342
:1001140033D24CD208E330D249D208E02DD246D2B1
:1001240001E02AD243D206E027D240D20DE024D205
:100134003DD25527882799273324503109F4B1D06B
:10014400503209F4AED04FEE332740930B010FEF3A
:100154000A950000E9F7009109010F700F3061F072
:1001640041E02227102F142319F40DD00C949F0082
:100174002395440F0C94B4003330F9F20894441FCF
:1001840033950C94A700333079F0233009F44DC033
:10019400022F000F020F030F0395102F602F00E3AF
:1001A400602B012F0C942A01203069F0213021F1B9
:1001B400223019F02330332493CF6DE301E0302A49
:1001C40000270C942A01032D0470043011F4FED08E
:1001D40005C0032D0270023009F403D102E0302A75
:1001E400E0E0F2E08193908300E2302A88279927A7
:1001F40000276DE20C942A01032D0470043011F4DD
:10020400E5D005C0032D0270023009F4EAD004E001
:10021400302AE0E0F2E08193908300E2302A8827DC
:10022400992700276BE20C942A01313061F000E435
:10023400302A303021F0002763E20C942A01002791
:100244006AE20C942A010027602F00E3602B002748
:1002540038B8102F00910901F02E062F98D1A6D19D
:100264005395032D0170013071F10AE0482E592E87
:10027400B894480E591E93F00A950230D4F7842D91
:10028400952D0027810F901F13F408E0302A38B809
:10029400A9D1009109010F15D1F3089508E0302A7E
:1002A400EECF503119F0503239F00895179815985F
:1002B40000EC62D17BD108951798159801E05CD1C8
:1002C40075D15527089538B8032D0074003411F4FE
:1002D400EED0DDCF032D0870083011F492D0D7CFC3
:1002E400E0E0F2E041905080032D0470043029F0E6
:1002F400032D0270023071F01CC0B894840D951D5A
:10030400A3F0E0E0F2E08193908309EF302200E271
:10031400302A14C0B894481A590A3BF0E0E0F2E0DD
:100324004192508209EF302209C008E0302A69D096
:10033400AECFE0E0F2E08193908300E20027E0E0BA
:10034400F2E081919081803090076CF1E9F000E156
:1003540017E2402E512E662401E0401688F18415E0
:100364009505ECF41127772488240AE040165804F4
:1003740030F0401A580801E0100F781CF6CF412ED7
:10038400572C00276016E9F000E3600E8ADF062D83
:10039400FED00CD100E8302A53956624DDCF8419B1
:1003A40095096394D9CF7DDF0DE2F1D0FFD0539549
:1003B4000FEF8027902701E01127800F911FC7CFEF
:1003C40066CF00E80321003039F2DECFE0E0F2E04E
:1003D40001911081B894800F911F83F00BEF3022AC
:1003E4000895E0E0F2E001911081B894081B190B24
:1003F4002BF0802F912F0DEF3022089508E0302A42
:1004040008954FDF0FE4C3D0D1D053954ADF06E7F8
:10041400BED0CCD0539545DF05E6B9D0C7D05395AF
:1004240040DF02E7B4D0C2D053953BDF06E6AFD03D
:10043400BDD0539536DF0CE6AAD0B8D0539531DF42
:100444000FE6A5D0B3D053952CDF07E7A0D0AED0EC
:10045400539527DF00E29BD0A9D0539522DF0FE408
:1004640096D0A4D053951DDF03E691D09FD0539529
:1004740018DF03E68CD09AD0539513DF05E787D0B5
:1004840095D053950EDF02E782D090D0539509DFC3
:1004940002E77DD08BD0539504DF05E678D086D073
:1004A4005395FFDE04E673D081D053950895F9DEA9
:1004B40009E46DD07BD05395F4DE0EE668D076D097
:1004C4005395EFDE03E663D071D05395EADE0FE671
:1004D4005ED06CD05395E5DE02E759D067D05395D2
:1004E400E0DE02E754D062D05395DBDE05E64FD060
:1004F4005DD05395D6DE03E64AD058D05395D1DE6D
:1005040004E745D053D05395CCDE00E240D04ED022
:100514005395C7DE05E43BD049D05395C2DE08E7C6
:1005240036D044D05395BDDE00E731D03FD053954B
:10053400B8DE02E72CD03AD05395B3DE05E627D0D7
:1005440035D05395AEDE03E722D030D05395A9DEE3
:1005540003E71DD02BD05395A4DE09E618D026D08E
:1005640053959FDE0FE613D021D053959ADE0EE605
:100574000ED01CD05395089501BB0000169A0000BC
:10058400000000001698000000000000089501BB60
:10059400179A000000000000169A000000000000F6
:1005A4001698000000000000179808950F93002784
:1005B40000BB01BB159A0000169A00000000000061
:1005C4000FB1169807FDF7CF15980FEF00BB0F91E9
:1005D40008958F939F939FE08CE90197F1F79F9182
:1005E4008F910895F6DFF5DFF4DFF3DFF2DF08958E
:00000001FF
