:020000020000FC
:040000000C947200EA
:1000E4000FEF0DBF01E20EBF00EF00930A010FEF07
:1000F40000BB01B9002701BB02B908E37ED097D049
:10010400B2D008E37AD093D0A5D008E376D08FD0CC
:1001140008E373D08CD008E070D089D001E06DD0B2
:1001240086D006E06AD083D00EE067D080D0552711
:100134000AC099D098D097D096D095D001E05DD0E0
:1001440076D0552703C000E1501799F33FEE2227DC
:1001540030930B010FEF0A95F1F7009109010F702D
:100164000F3061F031E01127402F432319F40DD0F3
:100174000C94A5001395330F0C94B600233019F397
:100184000894331F23950C94AA00233061F0133094
:1001940089F0012F000F010F020F0395602F00E378
:1001A400602B0C94F20001E0010F602F00E4602B3F
:1001B4000C94F200203049F0213071F00FE0602FF0
:1001C4006C5000E2602B0C94F2000EE0602F64503F
:1001D40000E2602B0C94F2000027602F00E3602BF8
:1001E40000910901F02E062F13D021D053953BD056
:1001F400009109010F15D9F3089501BB0000169A67
:10020400000000000000169800000000000008959F
:1002140001BB179A000000000000169A00000000BD
:1002240000001698000000000000179808950F932E
:10023400002700BB01BB159A0000169A00000000BD
:1002440000000FB1169807FDF7CF15980FEF00BB0C
:100254000F9108958F939F939FE08CE90197F1F795
:100264009F918F910895F6DFF5DFF4DFF3DFF2DF7E
:020274000895EB
:00000001FF
