:020000020000FC
:040000000C947200EA
:1000E4000FEF0DBF01E20EBF00EF00930A010FEF07
:1000F40000BB01B9002701BB02B908E380D099D045
:10010400B4D008E37CD095D0A7D008E378D091D0C0
:1001140008E375D08ED008E072D08BD001E06FD0A8
:1001240088D006E06CD085D00EE069D082D0552707
:100134000AC09BD09AD099D098D097D001E05FD0D4
:1001440078D0552703C000E1501799F33FEE2227DA
:1001540030930B010FEF0A9500000000E1F70091C6
:1001640009010F700F3061F031E01127402F432354
:1001740019F40DD00C94A5001395330F0C94B8000A
:10018400233009F30894331F23950C94AA002330D9
:1001940061F0133089F0012F000F010F020F039556
:1001A400602F00E3602B0C94F40001E0010F602F3A
:1001B40000E4602B0C94F400203049F0213071F0FD
:1001C4000FE0602F6C5000E2602B0C94F4000EE002
:1001D400602F645000E2602B0C94F4000027602F21
:1001E40000E3602B00910901F02E062F13D021D0DB
:1001F40053953BD0009109010F15D9F3089501BB24
:100204000000169A0000000000001698000000008C
:100214000000089501BB179A000000000000169A20
:10022400000000000000169800000000000017986D
:1002340008950F93002700BB01BB159A0000169A7E
:100244000000000000000FB1169807FDF7CF1598C5
:100254000FEF00BB0F9108958F939F939FE08CE95C
:100264000197F1F79F918F910895F6DFF5DFF4DFA1
:06027400F3DFF2DF089544
:00000001FF
