:020000020000FC
:10000000A0E0B2E0CAEED1E2EC2FFD2FDEBFCDBF03
:10001000319604E610E00D931D9301931193002790
:10002000112701ED10E00D931D930193119300270B
:1000300011270BE21DEF0D931D93019311930027E0
:10004000112708E31FEF0D931D93019311930027D0
:10005000112704EF11E00D931D93019311930027D5
:1000600011270DE211E00D931D93019311930027C9
:1000700011270CE310E00D931D93019311930027BA
:10008000112700E71EEF0D931D9301931193002795
:10009000112704E610E00D931D930193119300279F
:1000A000112700E510E00D931D9301931193002794
:1000B0001127749720E039E001D0FFCF8F932F9361
:1000C0003F93CF93DF93CDB7DEB72597DEBFCDBF8C
:1000D00029833A83EC83FD83231774F416D08B8332
:1000E00029813B813150EC81FD81E8DF2B812F5F3D
:1000F0003A81EC81FD81E2DF2596DEBFCDBFDF9145
:10010000CF913F912F918F9108952F933F934F93CC
:100110005F93CF93DF93CDB7DEB72897CDBFDEBF18
:10012000E983FA832B833C8342E0249FE00DF11D99
:10013000EF83F887419151914D835E830B811C8140
:100140001F5F0395E981FA8182E0809FE00DF11D38
:10015000619171913297101724F0461757070CF0F0
:10016000F0CF1A95A981BA8182E0819FA00DB11DBF
:100170006D917D911297461757079CF3011754F420
:10018000219131913297619371932D933D93129701
:100190003297D7CFEF81F885619371934D935D933B
:1001A000812F2896DEBFCDBFDF91CF915F914F9118
:0601B0003F912F9108951C
:00000001FF
