:020000020000FC
:100000000C9402000FEF0DBF01E20EBF0FEF00BB1B
:1000100001B9002701BB02B908E331D04AD065D04D
:1000200008E32DD046D058D008E329D042D008E3C9
:1000300026D03FD008E023D03CD001E020D039D0FA
:1000400006E01DD036D00EE01AD033D008E422D01E
:1000500030D005E61FD02DD00CE61CD02AD00CE6FF
:1000600019D027D00FE616D024D001E313D021D029
:1000700002E310D01ED003E30DD01BD0FFCF01BB95
:100080000000169A00000000000016980000000012
:100090000000089501BB179A000000000000169AA6
:1000A00000000000000016980000000000001798F3
:1000B00008950F93002700BB01BB159A0000169A04
:1000C0000000000000000FB1169807FDF7CF15984B
:1000D0000FEF00BB0F9108958F939F939FE08CE9E2
:1000E0000197F1F79F918F910895F6DFF5DFF4DF27
:0600F000F3DFF2DF0895CA
:00000001FF
