:020000020000FC
:100000000C9406000C941A000C943E000FEF0DBFE8
:1000100001E20EBF0FEF0FE007B9002708B90BB9D7
:100020000AB90AE0009369000DB303600DBB789430
:100030000C9462000F930FB70F9308B10A9508B99B
:10004000112722273327442722271395143669F0D6
:10005000332723952436C1F3442733953233C1F334
:100060004830D1F300004395FBCF112722273327D7
:1000700044270F910FBF0F91E09A18950F930FB778
:100080000F9308B1039508B9112722273327442776
:1000900022271395143669F0332723952436C1F3AC
:1000A000442733953233C1F34830D1F300004395F0
:1000B000FBCF11272227332744270F910FBF0F9122
:0600C000E19A1895FFCF44
:00000001FF
