:020000020000FC
:040000000C9430002C
:10005C000C9438001FEF1DBF11E21EBF1FEF17B924
:10006C00332734C01FB71F93DF93CF939F938F9386
:10007C00809100029091010201968D3310E091075E
:10008C0021F443954C33D9F00BC08093000290932C
:10009C0001028F919F91CF91DF911F911FBF1895F6
:1000AC00232F220F220F220F220F220F220F242B7D
:1000BC0028B9C0E0D2E0112719931883EACF44275E
:1000CC003395343009F0ECCF3327EACF40E048B910
:1000DC00C0E0D2E011271993188310E014BD15E08D
:0C00EC0015BD11E010936E007894FFCF5A
:00000001FF
