:020000020000FC
:10000000A0E0B2E0CEEED1E2EC2FFD2FDEBFCDBFFF
:10001000002711272227442729831A830B83379629
:1000200041934E8319D09C838D83849F502C612CE7
:100030007724949F600C711C5D926D927D92BB241D
:10004000BD92050D161D271D29831A830B83439529
:100050004A3030F329F32FC04F930F931F932F9300
:100060003F93CF93DF93CDB7DEB72597DEBFCDBFEC
:1000700033E049833A8381E0992721E0403081F0E1
:10008000839F002D112D5524939F100D511C802FFF
:10009000912F9B838C832D832395241788F381F3E1
:1000A0002596DEBFCDBFDF91CF913F912F911F915C
:0800B0000F914F910895FFCF5D
:00000001FF
