:020000020000FC
:0C0000000C9430000C949F000C94A8009D
:10005C000C9415030FEF0DBF01E20EBF00EF0093E0
:10006C000A010FEF07B9002708B90FEF00BB01B960
:10007C00002701BB02B908E388D3A1D3BCD308E3A2
:10008C0084D39DD3AFD308E380D399D308E37DD336
:10009C0096D308E07AD393D301E077D390D306E0DC
:1000AC0074D38DD30EE071D38AD30FEF0DB900E06A
:1000BC0000939A00002700939B0001E000939100AD
:1000CC0001E200939000789400270AB90BB90AE07A
:1000DC00009369000DB303600DBB7894BB24CC2452
:1000EC00992466245527DD24E0E0F2E0A4E6B2E092
:1000FC0001D02DC101E049D362D303E551D35FD3C5
:10010C0004E54ED35CD301E44BD359D304E548D377
:10011C0056D300E245D353D30EE442D350D305E576
:10012C003FD34DD30DE43CD34AD30AE339D347D361
:10013C0008950F930FB70F9341E0242E0F910FBF2B
:10014C000F9118950F930FB70F9341E0242E0F9139
:10015C000FBF0F911895C39401E017D330D3EC2C3B
:10016C0040E3E42A03E51CD32AD34AE0C41641F049
:10017C000E2D16D324D300E213D321D37724089564
:10018C0001E30ED31CD300E30BD319D30C94C100A1
:10019C00C39401E0FAD213D3EC2C40E3E42A03E538
:1001AC00FFD20DD34AE0C41631F10E2DF9D207D38C
:1001BC0000E2F6D204D304E5F3D201D30FE4F0D27B
:1001CC00FED200E2EDD2FBD203E5EAD2F8D249E04E
:1001DC00C416C9F0CB1441F0E3940E2DE1D2EFD24A
:1001EC0000E2DED2ECD2089501E3DAD2E8D200E2EA
:1001FC00D7D2E5D2089501E3D3D2E1D200E3D0D235
:10020C00DED20C94DE0001E3CBD2D9D200E3C8D20B
:10021C00D6D20C94F60001E0B8D2D1D203E5C0D20C
:10022C00CED204E5BDD2CBD20FE4BAD2C8D200E50F
:10023C00B7D2C5D200E2B4D2C2D204E5B1D2BFD299
:10024C0009E4AED2BCD20DE4ABD2B9D205E4A8D24B
:10025C00B6D20AE3A5D2B3D2089501E096D2AFD2BA
:10026C00E92C00E3E02A0E2D9BD2A9D20FE498D200
:10027C00A6D20BE495D2A3D200E292D2A0D207E58B
:10028C008FD29DD201E48CD29AD209E489D297D232
:10029C0004E586D294D208950C948E010C949A01A4
:1002AC0001E073D28CD2CB14C9F3E1900E2D78D22D
:1002BC0086D2E1900E2D74D282D2E1900E2D70D2A6
:1002CC007ED2E1900E2D6CD27AD2E1900E2D68D2B6
:1002DC0076D2E1900E2D64D272D2E1900E2D60D2C6
:1002EC006ED2E1900E2D5CD26AD2E1900E2D58D2D6
:1002FC0066D2E1900E2D54D262D2E290E290E2905E
:10030C00E290E290E290E290E290E290E290089526
:10031C00E190E190E190E190E190E190E190E19049
:10032C00E190E1900C945B01E0E0F2E00C945B0155
:10033C000C9480000C94B1000C94CE000C94CE0064
:10034C000C94CE0058D201E020D239D203C05ED238
:10035C005DD25CD23FEE222730930B010FEF0A9552
:10036C00F1F7009109010F700F3061F031E01127A6
:10037C00402F432319F40DD00C94AD011395330F7A
:10038C000C94BE01233019F30894331F23950C945D
:10039C00B201233039F11330F9F0012F000F010FA6
:1003AC00020F039540E0D416C1F142E0D416A9F136
:1003BC0043E0D41691F144E0D416A9F1703099F1D0
:1003CC00013089F1073069F1093049F1743059F184
:1003DC00083029F10C9417022030A9F1213089F151
:1003EC000C94890240E0D416F1F042E0D416D9F016
:1003FC0043E0D416C1F001E0010F702F08954AE0DC
:10040C00741688F4E02E00E4E02AE19273947727C6
:10041C000C947D0277240C9446020C941B020C94D1
:10042C004E020C9447020C944602E02E40E0D41687
:10043C00D1F042E0D41649F043E0D41669F00C94A4
:10044C0019020C946D020C94580248E0741658F77B
:10045C00802E73940C94400247E0741620F7902E73
:10046C0073940C94400248E07416E8F6B02E739422
:10047C000C94400200E3E02A7727A3940C947D02AD
:10048C0008950250402F440F040F070FA394B7CFC9
:10049C000250402F440F040F070F0395A394AFCFC6
:1004AC000C94320240E0D41659F342E0D41641F3D6
:1004BC0043E0D41629F300E2E02EE19273947727FF
:1004CC00A3940C947D020C9446020C942B0200E035
:1004DC00E02E41E0D416A1F240E0D41621F242E025
:1004EC00D41699F343E0D416D9F20C941902009166
:1004FC000901F02E0E2D54D162D17DD1009109014C
:10050C000F15D9F3089540E0D41689F041E0D416C4
:10051C0021F142E0D416A9F143E0D416D1F044E025
:10052C00D41619F045E0D416B1F0AA24089540E091
:10053C00A41659F040E0B41641F041E0B41629F08D
:10054C00D394772408DE0C949B024AE0B42E0C94CE
:10055C00A6020C94DD020C94F80200E24AE0741638
:10056C0021F0019373940C94B302772401F0CB1413
:10057C002CF0D394CC240CDE0C949B02ECDD0C946C
:10058C009B0240E0A41679F040E0841661F08D9255
:10059C007724CB142CF0D394CC243DDE0C949B020A
:1005AC00F7DD0C949B024AE0842E0C94CD0240E0C3
:1005BC00A41681F040E0941669F041E0941651F0D5
:1005CC0046E0941658F47724D394AA2446DE18D027
:1005DC000C949B0242E0942E0C94E90245E0942E7C
:1005EC000C94E90213D112D111D110D141E054175E
:1005FC0011F0542F0895552722245524662408956C
:10060C00AA2400E004BD02E005BD01E000936E00E9
:10061C007894089503E008B9EED00C9432036FB7C8
:10062C006F93DF93CF939F938F9380916E029091F2
:10063C006F02019641E05417D1F141E0341661F09C
:10064C00813060E0960731F38D326AE0960711F342
:10065C00883564E19607F1F2002708B984386EE119
:10066C00960791F441E0541749F044E0D41611F187
:10067C0041E05416A1F045E0D416C9F1CEE6D2E023
:10068C0000270993088304C080936E0290936F0235
:10069C008F919F91CF91DF916F916FBF18956ED015
:1006AC00A394A9145CF322245524AA24662466D0AE
:1006BC000C942303A39444E0A416B4F0D394E0E088
:1006CC00F2E0A4E6B2E0E190E190E190E190E190FB
:1006DC00E190E190E190E190E190CC24AA248D90FE
:1006EC00C39466240C944403B8DD0C94440341E099
:1006FC00541721F241E0641609F038D0A394A814E1
:10070C0094F1CB14ECF0CB1401F0E0E0F2E0A4E6B1
:10071C00B2E0E190E190E190E190E190E190E19024
:10072C00E190E190E190CC24C394AA248D9041E017
:10073C00241611F00C94440341E0542E0C94440301
:10074C00C394AA248D90ACDDE190E190E190E1900E
:10075C00E190E190E190E190E190E19041E024168C
:10076C0059F30C9444039CDD0C94440341E0642E37
:10077C00342E4CE3442E40929A00089540E0342EDF
:10078C0040E0442E40929A00089501BB0000169A56
:10079C000000000000001698000000000000089502
:1007AC0001BB179A000000000000169A0000000020
:1007BC0000001698000000000000179808950F9391
:1007CC00002700BB01BB159A0000169A0000000020
:1007DC0000000FB1169807FDF7CF15980FEF00BB6F
:1007EC000F9108958F939F939FE08CE90197F1F7F8
:1007FC009F918F910895F6DFF5DFF4DFF3DFF2DFE1
:10080C000895F9DFF8DFF7DFF6DF0895FADFF9DF97
:08081C00F8DFF7DFF6DF0895B5
:00000001FF
